:100000000C942A001895000018950000189500001F
:10001000189500001895000018950000189500002C
:10002000189500000C940501189500000C946500CB
:10003000189500001895000018950000189500000C
:1000400018950000189500001895000018950000FC
:10005000189500008FE58DBFC8E3E0E24E2E88E0E2
:100060008EBFD8E0F8E05F2EA89584B7082E877F72
:1000700084BF88E1992781BD91BDEEEFF7E0A0E64E
:10008000B0E088278D933197E9F70E947D016624BF
:100090008CE00E94CB0180E08FBD87E08EBDB998D7
:1000A000C19A85E083BF79B7746079BF79B7716011
:1000B00079BF789480E0809364000E94650185E0B8
:1000C00083BF0C946100F894FFCF0F921F922F9280
:1000D0003F924F925F927F92AF92BF920F931F9386
:1000E0002F933F934F935F936F937F938F939F9340
:1000F000AF93BF93CF93DF93EF93FF938FB78F931C
:10010000A5E6B0E00E9445014EE150E060E070E0FD
:10011000A5E6B0E00D911D912D913C910E94380211
:100120001CF011F00C9496000C94E900882783BF12
:100130000E9465010E946101A4E6B0E00C911127C4
:100140002227332740E050E061E070E00E940C027B
:10015000A0E6B0E00D931D932D933D93A0E6B0E093
:100160000D911D912D913C91ACE4B0E04D915C91CD
:10017000662777270E943302A0E6B0E00D931D9317
:100180002D933D93E0E4F5E00E945A018FEB11E0DE
:100190000E947401E0E6F0E0A8E0B8E00E944E02A0
:1001A0000E945201ECE4F5E00E945A0180E0809345
:1001B000640000E010E020E030E0A5E6B0E00D9340
:1001C0001D932D933C9380E090E09DBD8CBD85E018
:1001D00083BF8F918FBFFF91EF91DF91CF91BF913F
:1001E000AF919F918F917F916F915F914F913F91CF
:1001F0002F911F910F91BF90AF907F905F904F9084
:100200003F902F901F900F9018950F921F922F9252
:100210003F924F925F927F92AF92BF920F931F9344
:100220002F933F934F935F936F937F938F939F93FE
:10023000AF93BF93CF93DF93EF93FF938FB78F93DA
:10024000A4E6B0E08C918F5F8C9380E090E09DBD40
:100250008CBD8F918FBFFF91EF91DF91CF91BF91B7
:10026000AF919F918F917F916F915F914F913F914E
:100270002F911F910F91BF90AF907F905F904F9003
:100280003F902F901F900F9018950D911D912D91DB
:100290003C910F5F1F4F2F4F3F4F3C932E931E9368
:1002A0000E930895A8E0B8E08D91882311F06DD0E9
:1002B000FBCF08950E942F02802D11F066D0FACF57
:1002C000089582E068D016D012C081E064D012D0C8
:1002D00080E861C08FE7213039F08FEB223021F0C8
:1002E0008FE8233009F08FEC810F0C94CB0180E86C
:1002F00052D0089583E099277BC08AEF90E00E9456
:10030000F801D59AD49AD39AD29AD19AD09AD898F9
:1003100085E090E00E94F801D998DD98DC98DB9A9E
:10032000DA9AD99AEF93FF93E4ECF0E00E94EC01A3
:10033000FF91EF91D99859D0D99AEF93FF93E4ECBC
:10034000F0E00E94EC01FF91EF91D9984ED0D99A3C
:10035000EF93FF93E4ECF0E00E94EC01FF91EF914A
:10036000D99843D0DA98D99AEF93FF93E4ECF0E070
:100370000E94EC01FF91EF91D99837D088E20BD021
:100380008EE009D086E007D00895D89A829505D0EE
:1003900004D02BD00895D898F9CF859510F4DA9A27
:1003A00001C0DA98859510F4DB9A01C0DB98859539
:1003B00010F4DC9A01C0DC98859510F4DD9A01C038
:1003C000DD98D99AEF93FF93E4ECF0E00E94EC0102
:1003D000FF91EF91D99808953197F1F708956894B6
:1003E00062F80895E89462F8089581E090E000C012
:1003F000EF93FF93EE27E82BE92B31F0E0EDF7E0E8
:100400003197F1F70197D1F7FF91EF91089501919D
:1004100011912191308108950F921F922F92C8015E
:10042000D901489F80014A9F90014B9F202C499FF2
:10043000100D211D321D5A9F202C589F100D211D7B
:10044000321D599F200D311D689F200D311D699F60
:10045000300D789F300D2F901F900F900895C89504
:10046000319600200895040F151F261F371F089589
:1004700004171507260737070895000F111F221FBD
:10048000331F089500951095209530950F5F1F4FED
:100490002F4F3F4F0895019110810FC00E94070216
:1004A0000EC00E94070210C00191108117FF05C005
:1004B0003FEF2FEF04C0008111272227332737FF9A
:1004C00003C0E0DF8DE28D93CF92DF92EF92AA24FA
:1004D000BB24CC24DD24EE2440E2EAE0FF2755E0F3
:1004E00093E38081890F87FD9F7083FD907F891B37
:1004F00081935A95A9F7C1DFAA1CBB1CCC1CDD1C3B
:10050000EE1C4A9551F7E894EFE0FF2782910BD05B
:10051000EB30E0F71EF068948A2D09D04D93EF90F0
:10052000DF90CF900895982F829501D0892F8F70FA
:10053000805D26F0803309F4089568948D930895C2
:100540006672657175656E63793A000020485A00DD
:00000001FF
